:1000000012C0189518951895189518951895189563
:100010001895189518951895189518951895189578
:100020001895189518958FE58DBFC8E3E0E24E2E20
:1000300084E08EBFD4E0F4E05F2EA89584B7082E4C
:10004000877F84BF88E1992781BD91BDEEEFF3E002
:10005000A0E6B0E088278D933197E9F766248FEF0B
:1000600087BB889A899AA098A89AA598AD9A7FEF9D
:1000700078BB919A909A80E08093600080E08093B2
:10008000610080E080936200E0E0F0E0A3E6B0E091
:10009000ECD080916300D2018C9381E0B6D052D035
:1000A000229681E0AED0A098A4E6B0E09C9197FFA4
:1000B00004C0989B0EC09F779C9398990AC084E1D6
:1000C0009F9390E08CD09F91989903C090689C93E7
:1000D00019D0A598A4E6B0E09C9196FF04C09D9B22
:1000E0000EC09F7B9C939D990AC084E19F9390E0F2
:1000F00076D09F919D9903C090649C9319D0C9CFED
:10010000F894FFCFA3E6B0E08C918F5F8C930091C1
:100110006300033610F009F001C003C080E0809353
:100120006300E0E0F0E0A3E6B0E07BE78DD0089567
:1001300080E080936300E0E0F0E0A3E6B0E07BE7DE
:1001400083D00895A2E6B0E08C918F5F8C93A88154
:10015000B9810C914AE093D0A1E6B0E08C93EEEB2C
:10016000F1E0A1E6B0E08C919927A8E3B0E063D07C
:1001700000916200013009F006C09198909A81E0E8
:1001800090E02DD008C0023009F005C0919A9098F7
:1001900081E090E024D0919A909AA881B9810C9145
:1001A0004AE06DD00C93A881B9810C91003009F020
:1001B00004C080E08093620001C0C4CF0895C0F9FC
:1001C000A4B0999282F88090BF7FC7003197F1F771
:1001D0000895689462F80895E89462F80895EF939A
:1001E000FF93EE27E82BE92B31F0EAEFF0E03197AF
:1001F000F1F70197D1F7FF91EF910895481A590A45
:100200000895481A8827580A089599275A924A92B9
:10021000480E591E0895C89531960020089591E022
:1002200005C092E003C094E001C098E0F4DF0D92B5
:100230009A95E1F70895E80FF91FF1CFE199FECF04
:10024000EEBBFFBB3196089591E001C092E07B3791
:1002500051F47FB7F894F2DF8D918DBBE29AE19A69
:100260009A95C9F77FBF7727089591E001C092E082
:10027000E5DFE09A8DB38D939A95D1F70895FF93BA
:10028000881BF9E0001FFA9511F4FF910895881F6B
:0E029000841B18F4840F8894F5CF0894F3CFE4
:00000001FF
